{
  "contractName": "DeliveryContract",
  "abi": [
    {
      "anonymous": false,
      "inputs": [
        {
          "indexed": false,
          "internalType": "uint256",
          "name": "orderId",
          "type": "uint256"
        },
        {
          "indexed": false,
          "internalType": "address",
          "name": "retailStore",
          "type": "address"
        }
      ],
      "name": "DeliveryConfirmed",
      "type": "event"
    },
    {
      "anonymous": false,
      "inputs": [
        {
          "indexed": false,
          "internalType": "uint256",
          "name": "orderId",
          "type": "uint256"
        },
        {
          "indexed": false,
          "internalType": "uint256",
          "name": "productId",
          "type": "uint256"
        },
        {
          "indexed": false,
          "internalType": "uint256",
          "name": "quantity",
          "type": "uint256"
        },
        {
          "indexed": false,
          "internalType": "address",
          "name": "retailStore",
          "type": "address"
        }
      ],
      "name": "DeliveryInitiated",
      "type": "event"
    },
    {
      "anonymous": false,
      "inputs": [
        {
          "indexed": false,
          "internalType": "uint256",
          "name": "orderId",
          "type": "uint256"
        },
        {
          "indexed": false,
          "internalType": "enum DeliveryContract.DeliveryStatus",
          "name": "status",
          "type": "uint8"
        }
      ],
      "name": "StatusUpdated",
      "type": "event"
    },
    {
      "inputs": [
        {
          "internalType": "uint256",
          "name": "",
          "type": "uint256"
        }
      ],
      "name": "deliveries",
      "outputs": [
        {
          "internalType": "uint256",
          "name": "orderId",
          "type": "uint256"
        },
        {
          "internalType": "uint256",
          "name": "productId",
          "type": "uint256"
        },
        {
          "internalType": "uint256",
          "name": "quantity",
          "type": "uint256"
        },
        {
          "internalType": "address",
          "name": "retailStore",
          "type": "address"
        },
        {
          "internalType": "enum DeliveryContract.DeliveryStatus",
          "name": "status",
          "type": "uint8"
        }
      ],
      "stateMutability": "view",
      "type": "function",
      "constant": true
    },
    {
      "inputs": [
        {
          "internalType": "uint256",
          "name": "orderId",
          "type": "uint256"
        },
        {
          "internalType": "uint256",
          "name": "productId",
          "type": "uint256"
        },
        {
          "internalType": "uint256",
          "name": "quantity",
          "type": "uint256"
        },
        {
          "internalType": "address",
          "name": "retailStore",
          "type": "address"
        }
      ],
      "name": "initiateDelivery",
      "outputs": [],
      "stateMutability": "nonpayable",
      "type": "function"
    },
    {
      "inputs": [
        {
          "internalType": "uint256",
          "name": "orderId",
          "type": "uint256"
        }
      ],
      "name": "confirmDelivery",
      "outputs": [],
      "stateMutability": "nonpayable",
      "type": "function"
    },
    {
      "inputs": [
        {
          "internalType": "uint256",
          "name": "orderId",
          "type": "uint256"
        },
        {
          "internalType": "enum DeliveryContract.DeliveryStatus",
          "name": "newStatus",
          "type": "uint8"
        }
      ],
      "name": "updateStatus",
      "outputs": [],
      "stateMutability": "nonpayable",
      "type": "function"
    },
    {
      "inputs": [
        {
          "internalType": "uint256",
          "name": "orderId",
          "type": "uint256"
        }
      ],
      "name": "getDeliveryDetails",
      "outputs": [
        {
          "internalType": "uint256",
          "name": "",
          "type": "uint256"
        },
        {
          "internalType": "uint256",
          "name": "",
          "type": "uint256"
        },
        {
          "internalType": "uint256",
          "name": "",
          "type": "uint256"
        },
        {
          "internalType": "address",
          "name": "",
          "type": "address"
        },
        {
          "internalType": "string",
          "name": "",
          "type": "string"
        }
      ],
      "stateMutability": "view",
      "type": "function",
      "constant": true
    },
    {
      "inputs": [
        {
          "internalType": "uint256",
          "name": "orderId",
          "type": "uint256"
        }
      ],
      "name": "getDeliveryStatusAsString",
      "outputs": [
        {
          "internalType": "string",
          "name": "",
          "type": "string"
        }
      ],
      "stateMutability": "view",
      "type": "function",
      "constant": true
    }
  ],
  "bytecode": "0x608060405234801561001057600080fd5b50610dcb806100206000396000f3fe608060405234801561001057600080fd5b50600436106100625760003560e01c80633a1b3d3114610067578063640da67f14610083578063a9e4a324146100b3578063cb3918a8146100e7578063e24d45201461011b578063fd84cb9714610137575b600080fd5b610081600480360381019061007c9190610848565b610153565b005b61009d60048036038101906100989190610888565b6101d3565b6040516100aa9190610945565b60405180910390f35b6100cd60048036038101906100c89190610888565b61020d565b6040516100de959493929190610a2e565b60405180910390f35b61010160048036038101906100fc9190610888565b610270565b604051610112959493929190610a81565b60405180910390f35b61013560048036038101906101309190610b07565b6102f0565b005b610151600480360381019061014c9190610888565b6104aa565b005b60008060008481526020019081526020016000209050818160030160146101000a81548160ff021916908360028111156101905761018f6109b7565b5b02179055507f2da7b23ca63c1eb969eee5fae4acb98186abecf5358b0354a82a5183ebca6b2a83836040516101c6929190610b6e565b60405180910390a1505050565b6060600080600084815260200190815260200160002090506102058160030160149054906101000a900460ff1661066e565b915050919050565b60006020528060005260406000206000915090508060000154908060010154908060020154908060030160009054906101000a900473ffffffffffffffffffffffffffffffffffffffff16908060030160149054906101000a900460ff16905085565b6000806000806060600080600088815260200190815260200160002090508060000154816001015482600201548360030160009054906101000a900473ffffffffffffffffffffffffffffffffffffffff166102dc8560030160149054906101000a900460ff1661066e565b955095509550955095505091939590929450565b60008211610333576040517f08c379a000000000000000000000000000000000000000000000000000000000815260040161032a90610be3565b60405180910390fd5b6040518060a001604052808581526020018481526020018381526020018273ffffffffffffffffffffffffffffffffffffffff168152602001600060028111156103805761037f6109b7565b5b81525060008086815260200190815260200160002060008201518160000155602082015181600101556040820151816002015560608201518160030160006101000a81548173ffffffffffffffffffffffffffffffffffffffff021916908373ffffffffffffffffffffffffffffffffffffffff16021790555060808201518160030160146101000a81548160ff02191690836002811115610425576104246109b7565b5b02179055509050507fb46204711b04e373925d461bef8031ac16c87009bf3fe74bfe3dfda5c754b473848484846040516104629493929190610c03565b60405180910390a17f2da7b23ca63c1eb969eee5fae4acb98186abecf5358b0354a82a5183ebca6b2a84600060405161049c929190610b6e565b60405180910390a150505050565b600080600083815260200190815260200160002090503373ffffffffffffffffffffffffffffffffffffffff168160030160009054906101000a900473ffffffffffffffffffffffffffffffffffffffff1673ffffffffffffffffffffffffffffffffffffffff1614610552576040517f08c379a000000000000000000000000000000000000000000000000000000000815260040161054990610cba565b60405180910390fd5b60006002811115610566576105656109b7565b5b8160030160149054906101000a900460ff16600281111561058a576105896109b7565b5b146105ca576040517f08c379a00000000000000000000000000000000000000000000000000000000081526004016105c190610d4c565b60405180910390fd5b60018160030160146101000a81548160ff021916908360028111156105f2576105f16109b7565b5b02179055507f64a783c6150854ae756454311c7625a965c757996ba8cc1a8c6205380f3372508233604051610628929190610d6c565b60405180910390a17f2da7b23ca63c1eb969eee5fae4acb98186abecf5358b0354a82a5183ebca6b2a826001604051610662929190610b6e565b60405180910390a15050565b606060006002811115610684576106836109b7565b5b826002811115610697576106966109b7565b5b036106d9576040518060400160405280600a81526020017f496e205472616e7369740000000000000000000000000000000000000000000081525090506107e3565b600160028111156106ed576106ec6109b7565b5b826002811115610700576106ff6109b7565b5b03610742576040518060400160405280600981526020017f44656c697665726564000000000000000000000000000000000000000000000081525090506107e3565b600280811115610755576107546109b7565b5b826002811115610768576107676109b7565b5b036107aa576040518060400160405280600981526020017f43616e63656c6c6564000000000000000000000000000000000000000000000081525090506107e3565b6040518060400160405280600781526020017f556e6b6e6f776e0000000000000000000000000000000000000000000000000081525090505b919050565b600080fd5b6000819050919050565b610800816107ed565b811461080b57600080fd5b50565b60008135905061081d816107f7565b92915050565b6003811061083057600080fd5b50565b60008135905061084281610823565b92915050565b6000806040838503121561085f5761085e6107e8565b5b600061086d8582860161080e565b925050602061087e85828601610833565b9150509250929050565b60006020828403121561089e5761089d6107e8565b5b60006108ac8482850161080e565b91505092915050565b600081519050919050565b600082825260208201905092915050565b60005b838110156108ef5780820151818401526020810190506108d4565b60008484015250505050565b6000601f19601f8301169050919050565b6000610917826108b5565b61092181856108c0565b93506109318185602086016108d1565b61093a816108fb565b840191505092915050565b6000602082019050818103600083015261095f818461090c565b905092915050565b610970816107ed565b82525050565b600073ffffffffffffffffffffffffffffffffffffffff82169050919050565b60006109a182610976565b9050919050565b6109b181610996565b82525050565b7f4e487b7100000000000000000000000000000000000000000000000000000000600052602160045260246000fd5b600381106109f7576109f66109b7565b5b50565b6000819050610a08826109e6565b919050565b6000610a18826109fa565b9050919050565b610a2881610a0d565b82525050565b600060a082019050610a436000830188610967565b610a506020830187610967565b610a5d6040830186610967565b610a6a60608301856109a8565b610a776080830184610a1f565b9695505050505050565b600060a082019050610a966000830188610967565b610aa36020830187610967565b610ab06040830186610967565b610abd60608301856109a8565b8181036080830152610acf818461090c565b90509695505050505050565b610ae481610996565b8114610aef57600080fd5b50565b600081359050610b0181610adb565b92915050565b60008060008060808587031215610b2157610b206107e8565b5b6000610b2f8782880161080e565b9450506020610b408782880161080e565b9350506040610b518782880161080e565b9250506060610b6287828801610af2565b91505092959194509250565b6000604082019050610b836000830185610967565b610b906020830184610a1f565b9392505050565b7f5175616e74697479206d7573742062652067726561746572207468616e203000600082015250565b6000610bcd601f836108c0565b9150610bd882610b97565b602082019050919050565b60006020820190508181036000830152610bfc81610bc0565b9050919050565b6000608082019050610c186000830187610967565b610c256020830186610967565b610c326040830185610967565b610c3f60608301846109a8565b95945050505050565b7f4f6e6c79207468652061737369676e65642072657461696c2073746f7265206360008201527f616e20636f6e6669726d20746869732064656c69766572790000000000000000602082015250565b6000610ca46038836108c0565b9150610caf82610c48565b604082019050919050565b60006020820190508181036000830152610cd381610c97565b9050919050565b7f44656c6976657279206d75737420626520696e207472616e73697420746f206260008201527f6520636f6e6669726d6564000000000000000000000000000000000000000000602082015250565b6000610d36602b836108c0565b9150610d4182610cda565b604082019050919050565b60006020820190508181036000830152610d6581610d29565b9050919050565b6000604082019050610d816000830185610967565b610d8e60208301846109a8565b939250505056fea2646970667358221220713eafba127789bcfba75165f2282999914059587bd0cce64fe4caf695a8f00264736f6c63430008110033",
  "immutableReferences": {},
  "source": "// SPDX-License-Identifier: MIT\r\npragma solidity ^0.8.17;\r\n\r\n\r\ncontract DeliveryContract {     // Contract for handling delivery operations in a supply chain.\r\n    \r\n    enum DeliveryStatus { InTransit, Delivered, Cancelled }\r\n\r\n    struct Delivery {\r\n        uint orderId;    // Unique identifier for the order\r\n        uint productId;   // Unique identifier for the product\r\n        uint quantity;    // Quantity of the product in the delivery\r\n        address retailStore;  // Address of the retail store to which delivery is made\r\n        DeliveryStatus status;   // Current status of the delivery (e.g., \"In Transit\", \"Delivered\")\r\n    }\r\n\r\n    mapping(uint => Delivery) public deliveries; // Mapping to store deliveries by orderId\r\n\r\n   \r\n    \r\n    event DeliveryInitiated(uint orderId, uint productId, uint quantity, address retailStore);   // Event emitted when a delivery is initiated\r\n    \r\n    event DeliveryConfirmed(uint orderId, address retailStore);  // Event emitted when a delivery is confirmed by retail store\r\n    \r\n    event StatusUpdated(uint orderId, DeliveryStatus status);   // Event emitted when the status of a delivery is updated\r\n\r\n   \r\n\r\n\r\n\r\n    // Function to initiate a delivery\r\n    function initiateDelivery(uint orderId, uint productId, uint quantity, address retailStore) external  {\r\n        require(quantity > 0, \"Quantity must be greater than 0\");\r\n        deliveries[orderId] = Delivery(orderId, productId, quantity, retailStore, DeliveryStatus.InTransit);  // Create a new delivery entry with status \"In Transit\"\r\n        emit DeliveryInitiated(orderId, productId, quantity, retailStore);  // Emit an event for the initiated delivery.\r\n        emit StatusUpdated(orderId, DeliveryStatus.InTransit);    // Emit an event for the updated status\r\n    }\r\n\r\n    \r\n\r\n    // Function to confirm delivery\r\n    function confirmDelivery(uint orderId) external {\r\n        Delivery storage delivery = deliveries[orderId];  // Fetch the delivery details using the orderId.\r\n        require(delivery.retailStore == msg.sender, \"Only the assigned retail store can confirm this delivery\");   // Ensure that only the assigned retail store can confirm the delivery.\r\n        require(delivery.status == DeliveryStatus.InTransit, \"Delivery must be in transit to be confirmed\");   // Ensure that delivery is in the correct status for confirmation.\r\n        delivery.status = DeliveryStatus.Delivered;  // Update the status of the delivery to \"Delivered\".\r\n        emit DeliveryConfirmed(orderId, msg.sender);  // Emit an event to confirm the delivery.\r\n        emit StatusUpdated(orderId, DeliveryStatus.Delivered);   // Emit an event for the updated status.\r\n    }\r\n\r\n    // Function to update the status of a delivery\r\n    function updateStatus(uint orderId, DeliveryStatus newStatus) external  {\r\n        Delivery storage delivery = deliveries[orderId];   // Fetch the delivery details using the orderId.\r\n        delivery.status = newStatus;   // Update the status of the delivery.\r\n        emit StatusUpdated(orderId, newStatus);    // Emit an event for the updated status.\r\n    }\r\n\r\n    // Function to get the deteails of a delivery\r\n     function getDeliveryDetails(uint orderId) external view returns (uint, uint, uint, address, string memory) {\r\n        Delivery storage delivery = deliveries[orderId];\r\n        return (delivery.orderId, delivery.productId, delivery.quantity, delivery.retailStore, _getStatusString(delivery.status));\r\n    }\r\n\r\n\r\n     // Get the status as a string because enum returns integers.\r\n    function getDeliveryStatusAsString(uint orderId) external view returns (string memory) {\r\n        Delivery storage delivery = deliveries[orderId];\r\n        return _getStatusString(delivery.status);\r\n    }\r\n\r\n    // Helper function to convert enum to string\r\n    function _getStatusString(DeliveryStatus status) internal pure returns (string memory) {\r\n        if (status == DeliveryStatus.InTransit) {\r\n            return \"In Transit\";\r\n        } else if (status == DeliveryStatus.Delivered) {\r\n            return \"Delivered\";\r\n        } else if (status == DeliveryStatus.Cancelled) {\r\n            return \"Cancelled\";\r\n        } else {\r\n            return \"Unknown\";\r\n        }\r\n    }\r\n}",
  "sourcePath": "C:\\Users\\alexk\\projects\\erpproject\\supplychain\\smart_contracts\\contracts\\DeliveryContract.sol",
  "compiler": {
    "name": "solc",
    "version": "0.8.17+commit.8df45f5f.Emscripten.clang"
  },
  "schemaVersion": "3.4.16",
  "updatedAt": "2024-09-19T12:29:26.011Z",
  "networkType": "ethereum",
  "devdoc": {
    "kind": "dev",
    "methods": {},
    "version": 1
  },
  "userdoc": {
    "kind": "user",
    "methods": {},
    "version": 1
  }
}