{
  "contractName": "DeliveryContract",
  "abi": [
    {
      "anonymous": false,
      "inputs": [
        {
          "indexed": false,
          "internalType": "uint256",
          "name": "orderId",
          "type": "uint256"
        },
        {
          "indexed": false,
          "internalType": "address",
          "name": "retailStore",
          "type": "address"
        }
      ],
      "name": "DeliveryConfirmed",
      "type": "event"
    },
    {
      "anonymous": false,
      "inputs": [
        {
          "indexed": false,
          "internalType": "uint256",
          "name": "orderId",
          "type": "uint256"
        },
        {
          "indexed": false,
          "internalType": "uint256",
          "name": "productId",
          "type": "uint256"
        },
        {
          "indexed": false,
          "internalType": "uint256",
          "name": "quantity",
          "type": "uint256"
        },
        {
          "indexed": false,
          "internalType": "address",
          "name": "retailStore",
          "type": "address"
        }
      ],
      "name": "DeliveryInitiated",
      "type": "event"
    },
    {
      "anonymous": false,
      "inputs": [
        {
          "indexed": false,
          "internalType": "uint256",
          "name": "orderId",
          "type": "uint256"
        },
        {
          "indexed": false,
          "internalType": "enum DeliveryContract.DeliveryStatus",
          "name": "status",
          "type": "uint8"
        }
      ],
      "name": "StatusUpdated",
      "type": "event"
    },
    {
      "inputs": [
        {
          "internalType": "uint256",
          "name": "",
          "type": "uint256"
        }
      ],
      "name": "deliveries",
      "outputs": [
        {
          "internalType": "uint256",
          "name": "orderId",
          "type": "uint256"
        },
        {
          "internalType": "uint256",
          "name": "productId",
          "type": "uint256"
        },
        {
          "internalType": "uint256",
          "name": "quantity",
          "type": "uint256"
        },
        {
          "internalType": "address",
          "name": "retailStore",
          "type": "address"
        },
        {
          "internalType": "enum DeliveryContract.DeliveryStatus",
          "name": "status",
          "type": "uint8"
        }
      ],
      "stateMutability": "view",
      "type": "function",
      "constant": true
    },
    {
      "inputs": [
        {
          "internalType": "uint256",
          "name": "",
          "type": "uint256"
        }
      ],
      "name": "inventory",
      "outputs": [
        {
          "internalType": "uint256",
          "name": "productId",
          "type": "uint256"
        },
        {
          "internalType": "uint256",
          "name": "quantity",
          "type": "uint256"
        }
      ],
      "stateMutability": "view",
      "type": "function",
      "constant": true
    },
    {
      "inputs": [
        {
          "internalType": "uint256",
          "name": "orderId",
          "type": "uint256"
        },
        {
          "internalType": "uint256",
          "name": "productId",
          "type": "uint256"
        },
        {
          "internalType": "uint256",
          "name": "quantity",
          "type": "uint256"
        },
        {
          "internalType": "address",
          "name": "retailStore",
          "type": "address"
        }
      ],
      "name": "initiateDelivery",
      "outputs": [],
      "stateMutability": "nonpayable",
      "type": "function"
    },
    {
      "inputs": [
        {
          "internalType": "uint256",
          "name": "orderId",
          "type": "uint256"
        }
      ],
      "name": "confirmDelivery",
      "outputs": [],
      "stateMutability": "nonpayable",
      "type": "function"
    },
    {
      "inputs": [
        {
          "internalType": "uint256",
          "name": "orderId",
          "type": "uint256"
        },
        {
          "internalType": "enum DeliveryContract.DeliveryStatus",
          "name": "newStatus",
          "type": "uint8"
        }
      ],
      "name": "updateStatus",
      "outputs": [],
      "stateMutability": "nonpayable",
      "type": "function"
    },
    {
      "inputs": [
        {
          "internalType": "uint256",
          "name": "orderId",
          "type": "uint256"
        }
      ],
      "name": "getDeliveryDetails",
      "outputs": [
        {
          "internalType": "uint256",
          "name": "",
          "type": "uint256"
        },
        {
          "internalType": "uint256",
          "name": "",
          "type": "uint256"
        },
        {
          "internalType": "uint256",
          "name": "",
          "type": "uint256"
        },
        {
          "internalType": "address",
          "name": "",
          "type": "address"
        },
        {
          "internalType": "string",
          "name": "",
          "type": "string"
        }
      ],
      "stateMutability": "view",
      "type": "function",
      "constant": true
    },
    {
      "inputs": [
        {
          "internalType": "uint256",
          "name": "orderId",
          "type": "uint256"
        }
      ],
      "name": "getDeliveryStatusAsString",
      "outputs": [
        {
          "internalType": "string",
          "name": "",
          "type": "string"
        }
      ],
      "stateMutability": "view",
      "type": "function",
      "constant": true
    }
  ],
  "bytecode": "0x608060405234801561001057600080fd5b50610fd6806100206000396000f3fe608060405234801561001057600080fd5b506004361061007d5760003560e01c8063a9e4a3241161005b578063a9e4a324146100ff578063cb3918a814610133578063e24d452014610167578063fd84cb97146101835761007d565b80633a1b3d31146100825780634272ee181461009e578063640da67f146100cf575b600080fd5b61009c60048036038101906100979190610998565b61019f565b005b6100b860048036038101906100b391906109d8565b61021f565b6040516100c6929190610a14565b60405180910390f35b6100e960048036038101906100e491906109d8565b610243565b6040516100f69190610acd565b60405180910390f35b610119600480360381019061011491906109d8565b61027d565b60405161012a959493929190610ba7565b60405180910390f35b61014d600480360381019061014891906109d8565b6102e0565b60405161015e959493929190610bfa565b60405180910390f35b610181600480360381019061017c9190610c80565b610360565b005b61019d600480360381019061019891906109d8565b6105fa565b005b60008060008481526020019081526020016000209050818160030160146101000a81548160ff021916908360028111156101dc576101db610b30565b5b02179055507f2da7b23ca63c1eb969eee5fae4acb98186abecf5358b0354a82a5183ebca6b2a8383604051610212929190610ce7565b60405180910390a1505050565b60016020528060005260406000206000915090508060000154908060010154905082565b6060600080600084815260200190815260200160002090506102758160030160149054906101000a900460ff166107be565b915050919050565b60006020528060005260406000206000915090508060000154908060010154908060020154908060030160009054906101000a900473ffffffffffffffffffffffffffffffffffffffff16908060030160149054906101000a900460ff16905085565b6000806000806060600080600088815260200190815260200160002090508060000154816001015482600201548360030160009054906101000a900473ffffffffffffffffffffffffffffffffffffffff1661034c8560030160149054906101000a900460ff166107be565b955095509550955095505091939590929450565b600082116103a3576040517f08c379a000000000000000000000000000000000000000000000000000000000815260040161039a90610d5c565b60405180910390fd5b600080600086815260200190815260200160002090506002808111156103cc576103cb610b30565b5b8160030160149054906101000a900460ff1660028111156103f0576103ef610b30565b5b148061044357506000600281111561040b5761040a610b30565b5b600281111561041d5761041c610b30565b5b8160030160149054906101000a900460ff16600281111561044157610440610b30565b5b145b610482576040517f08c379a000000000000000000000000000000000000000000000000000000000815260040161047990610dee565b60405180910390fd5b6040518060a001604052808681526020018581526020018481526020018373ffffffffffffffffffffffffffffffffffffffff168152602001600060028111156104cf576104ce610b30565b5b81525060008087815260200190815260200160002060008201518160000155602082015181600101556040820151816002015560608201518160030160006101000a81548173ffffffffffffffffffffffffffffffffffffffff021916908373ffffffffffffffffffffffffffffffffffffffff16021790555060808201518160030160146101000a81548160ff0219169083600281111561057457610573610b30565b5b02179055509050507fb46204711b04e373925d461bef8031ac16c87009bf3fe74bfe3dfda5c754b473858585856040516105b19493929190610e0e565b60405180910390a17f2da7b23ca63c1eb969eee5fae4acb98186abecf5358b0354a82a5183ebca6b2a8560006040516105eb929190610ce7565b60405180910390a15050505050565b600080600083815260200190815260200160002090503373ffffffffffffffffffffffffffffffffffffffff168160030160009054906101000a900473ffffffffffffffffffffffffffffffffffffffff1673ffffffffffffffffffffffffffffffffffffffff16146106a2576040517f08c379a000000000000000000000000000000000000000000000000000000000815260040161069990610ec5565b60405180910390fd5b600060028111156106b6576106b5610b30565b5b8160030160149054906101000a900460ff1660028111156106da576106d9610b30565b5b1461071a576040517f08c379a000000000000000000000000000000000000000000000000000000000815260040161071190610f57565b60405180910390fd5b60018160030160146101000a81548160ff0219169083600281111561074257610741610b30565b5b02179055507f64a783c6150854ae756454311c7625a965c757996ba8cc1a8c6205380f3372508233604051610778929190610f77565b60405180910390a17f2da7b23ca63c1eb969eee5fae4acb98186abecf5358b0354a82a5183ebca6b2a8260016040516107b2929190610ce7565b60405180910390a15050565b6060600060028111156107d4576107d3610b30565b5b8260028111156107e7576107e6610b30565b5b03610829576040518060400160405280600a81526020017f496e205472616e736974000000000000000000000000000000000000000000008152509050610933565b6001600281111561083d5761083c610b30565b5b8260028111156108505761084f610b30565b5b03610892576040518060400160405280600981526020017f44656c69766572656400000000000000000000000000000000000000000000008152509050610933565b6002808111156108a5576108a4610b30565b5b8260028111156108b8576108b7610b30565b5b036108fa576040518060400160405280600981526020017f43616e63656c6c656400000000000000000000000000000000000000000000008152509050610933565b6040518060400160405280600781526020017f556e6b6e6f776e0000000000000000000000000000000000000000000000000081525090505b919050565b600080fd5b6000819050919050565b6109508161093d565b811461095b57600080fd5b50565b60008135905061096d81610947565b92915050565b6003811061098057600080fd5b50565b60008135905061099281610973565b92915050565b600080604083850312156109af576109ae610938565b5b60006109bd8582860161095e565b92505060206109ce85828601610983565b9150509250929050565b6000602082840312156109ee576109ed610938565b5b60006109fc8482850161095e565b91505092915050565b610a0e8161093d565b82525050565b6000604082019050610a296000830185610a05565b610a366020830184610a05565b9392505050565b600081519050919050565b600082825260208201905092915050565b60005b83811015610a77578082015181840152602081019050610a5c565b60008484015250505050565b6000601f19601f8301169050919050565b6000610a9f82610a3d565b610aa98185610a48565b9350610ab9818560208601610a59565b610ac281610a83565b840191505092915050565b60006020820190508181036000830152610ae78184610a94565b905092915050565b600073ffffffffffffffffffffffffffffffffffffffff82169050919050565b6000610b1a82610aef565b9050919050565b610b2a81610b0f565b82525050565b7f4e487b7100000000000000000000000000000000000000000000000000000000600052602160045260246000fd5b60038110610b7057610b6f610b30565b5b50565b6000819050610b8182610b5f565b919050565b6000610b9182610b73565b9050919050565b610ba181610b86565b82525050565b600060a082019050610bbc6000830188610a05565b610bc96020830187610a05565b610bd66040830186610a05565b610be36060830185610b21565b610bf06080830184610b98565b9695505050505050565b600060a082019050610c0f6000830188610a05565b610c1c6020830187610a05565b610c296040830186610a05565b610c366060830185610b21565b8181036080830152610c488184610a94565b90509695505050505050565b610c5d81610b0f565b8114610c6857600080fd5b50565b600081359050610c7a81610c54565b92915050565b60008060008060808587031215610c9a57610c99610938565b5b6000610ca88782880161095e565b9450506020610cb98782880161095e565b9350506040610cca8782880161095e565b9250506060610cdb87828801610c6b565b91505092959194509250565b6000604082019050610cfc6000830185610a05565b610d096020830184610b98565b9392505050565b7f5175616e74697479206d7573742062652067726561746572207468616e203000600082015250565b6000610d46601f83610a48565b9150610d5182610d10565b602082019050919050565b60006020820190508181036000830152610d7581610d39565b9050919050565b7f44656c69766572792068617320616c7265616479206265656e20696e6974696160008201527f746564206f722064656c69766572656400000000000000000000000000000000602082015250565b6000610dd8603083610a48565b9150610de382610d7c565b604082019050919050565b60006020820190508181036000830152610e0781610dcb565b9050919050565b6000608082019050610e236000830187610a05565b610e306020830186610a05565b610e3d6040830185610a05565b610e4a6060830184610b21565b95945050505050565b7f4f6e6c79207468652061737369676e65642072657461696c2073746f7265206360008201527f616e20636f6e6669726d20746869732064656c69766572790000000000000000602082015250565b6000610eaf603883610a48565b9150610eba82610e53565b604082019050919050565b60006020820190508181036000830152610ede81610ea2565b9050919050565b7f44656c6976657279206d75737420626520696e207472616e73697420746f206260008201527f6520636f6e6669726d6564000000000000000000000000000000000000000000602082015250565b6000610f41602b83610a48565b9150610f4c82610ee5565b604082019050919050565b60006020820190508181036000830152610f7081610f34565b9050919050565b6000604082019050610f8c6000830185610a05565b610f996020830184610b21565b939250505056fea264697066735822122051af957c6eea2bbb0f65a0b288ca0208c00e78e1e532549a02972576ec677bb164736f6c63430008110033",
  "immutableReferences": {},
  "source": "// SPDX-License-Identifier: MIT\r\npragma solidity ^0.8.17;\r\n\r\n\r\ncontract DeliveryContract {     // Contract for handling delivery operations in a supply chain.\r\n    \r\n    enum DeliveryStatus { InTransit, Delivered, Cancelled }\r\n\r\n    struct Delivery {\r\n        uint orderId;    // Unique identifier for the order\r\n        uint productId;   // Unique identifier for the product\r\n        uint quantity;    // Quantity of the product in the delivery\r\n        address retailStore;  // Address of the retail store to which delivery is made\r\n        DeliveryStatus status;   // Current status of the delivery (e.g., \"In Transit\", \"Delivered\")\r\n    }\r\n\r\n    struct InventoryItem {\r\n    uint256 productId;\r\n    uint256 quantity;\r\n}\r\n\r\n\r\n    mapping(uint => Delivery) public deliveries; // Mapping to store deliveries by orderId\r\n    mapping(uint256 => InventoryItem) public inventory; // Add inventory mapping here if needed\r\n\r\n   \r\n    \r\n    event DeliveryInitiated(uint orderId, uint productId, uint quantity, address retailStore);   // Event emitted when a delivery is initiated\r\n    \r\n    event DeliveryConfirmed(uint orderId, address retailStore);  // Event emitted when a delivery is confirmed by retail store\r\n    \r\n    event StatusUpdated(uint orderId, DeliveryStatus status);   // Event emitted when the status of a delivery is updated\r\n\r\n   \r\n\r\n\r\n\r\n    function initiateDelivery(uint orderId, uint productId, uint quantity, address retailStore) external {\r\n    require(quantity > 0, \"Quantity must be greater than 0\");\r\n\r\n    Delivery storage delivery = deliveries[orderId];\r\n    require(delivery.status == DeliveryStatus.Cancelled || delivery.status == DeliveryStatus(0), \"Delivery has already been initiated or delivered\");\r\n\r\n    // Create a new delivery entry with status \"In Transit\"\r\n    deliveries[orderId] = Delivery(orderId, productId, quantity, retailStore, DeliveryStatus.InTransit);\r\n\r\n    emit DeliveryInitiated(orderId, productId, quantity, retailStore);  \r\n    emit StatusUpdated(orderId, DeliveryStatus.InTransit);    \r\n}\r\n\r\n\r\n    \r\n\r\n    // Function to confirm delivery\r\n    function confirmDelivery(uint orderId) external {\r\n        Delivery storage delivery = deliveries[orderId];  // Fetch the delivery details using the orderId.\r\n        require(delivery.retailStore == msg.sender, \"Only the assigned retail store can confirm this delivery\");   // Ensure that only the assigned retail store can confirm the delivery.\r\n        require(delivery.status == DeliveryStatus.InTransit, \"Delivery must be in transit to be confirmed\");   // Ensure that delivery is in the correct status for confirmation.\r\n        \r\n        delivery.status = DeliveryStatus.Delivered;  // Update the status of the delivery to \"Delivered\".\r\n        emit DeliveryConfirmed(orderId, msg.sender);  // Emit an event to confirm the delivery.\r\n        emit StatusUpdated(orderId, DeliveryStatus.Delivered);   // Emit an event for the updated status.\r\n    }\r\n\r\n    // Function to update the status of a delivery\r\n    function updateStatus(uint orderId, DeliveryStatus newStatus) external  {\r\n        Delivery storage delivery = deliveries[orderId];   // Fetch the delivery details using the orderId.\r\n        delivery.status = newStatus;   // Update the status of the delivery.\r\n        emit StatusUpdated(orderId, newStatus);    // Emit an event for the updated status.\r\n    }\r\n\r\n    // Function to get the deteails of a delivery\r\n     function getDeliveryDetails(uint orderId) external view returns (uint, uint, uint, address, string memory) {\r\n        Delivery storage delivery = deliveries[orderId];\r\n        return (delivery.orderId, delivery.productId, delivery.quantity, delivery.retailStore, _getStatusString(delivery.status));\r\n    }\r\n\r\n\r\n     // Get the status as a string because enum returns integers.\r\n    function getDeliveryStatusAsString(uint orderId) external view returns (string memory) {\r\n        Delivery storage delivery = deliveries[orderId];\r\n        return _getStatusString(delivery.status);\r\n    }\r\n\r\n    // Helper function to convert enum to string\r\n    function _getStatusString(DeliveryStatus status) internal pure returns (string memory) {\r\n        if (status == DeliveryStatus.InTransit) {\r\n            return \"In Transit\";\r\n        } else if (status == DeliveryStatus.Delivered) {\r\n            return \"Delivered\";\r\n        } else if (status == DeliveryStatus.Cancelled) {\r\n            return \"Cancelled\";\r\n        } else {\r\n            return \"Unknown\";\r\n        }\r\n    }\r\n}",
  "sourcePath": "C:\\Users\\alexk\\projects\\erpproject\\supplychain\\smart_contracts\\contracts\\DeliveryContract.sol",
  "compiler": {
    "name": "solc",
    "version": "0.8.17+commit.8df45f5f.Emscripten.clang"
  },
  "schemaVersion": "3.4.16",
  "updatedAt": "2024-09-20T10:43:33.671Z",
  "networkType": "ethereum",
  "devdoc": {
    "kind": "dev",
    "methods": {},
    "version": 1
  },
  "userdoc": {
    "kind": "user",
    "methods": {},
    "version": 1
  }
}