{
  "contractName": "DistributorContract",
  "abi": [
    {
      "inputs": [
        {
          "internalType": "address",
          "name": "_manufacturer",
          "type": "address"
        },
        {
          "internalType": "address",
          "name": "_deliveryContract",
          "type": "address"
        }
      ],
      "stateMutability": "nonpayable",
      "type": "constructor"
    },
    {
      "anonymous": false,
      "inputs": [
        {
          "indexed": false,
          "internalType": "uint256",
          "name": "orderId",
          "type": "uint256"
        },
        {
          "indexed": false,
          "internalType": "uint256",
          "name": "productId",
          "type": "uint256"
        },
        {
          "indexed": false,
          "internalType": "uint256",
          "name": "quantity",
          "type": "uint256"
        }
      ],
      "name": "ManufacturerContacted",
      "type": "event"
    },
    {
      "anonymous": false,
      "inputs": [
        {
          "indexed": false,
          "internalType": "uint256",
          "name": "orderId",
          "type": "uint256"
        },
        {
          "indexed": false,
          "internalType": "uint256",
          "name": "productId",
          "type": "uint256"
        },
        {
          "indexed": false,
          "internalType": "uint256",
          "name": "quantity",
          "type": "uint256"
        },
        {
          "indexed": false,
          "internalType": "bool",
          "name": "isAvailable",
          "type": "bool"
        }
      ],
      "name": "OrderProcessed",
      "type": "event"
    },
    {
      "inputs": [],
      "name": "deliveryContract",
      "outputs": [
        {
          "internalType": "address",
          "name": "",
          "type": "address"
        }
      ],
      "stateMutability": "view",
      "type": "function",
      "constant": true
    },
    {
      "inputs": [],
      "name": "manufacturer",
      "outputs": [
        {
          "internalType": "address",
          "name": "",
          "type": "address"
        }
      ],
      "stateMutability": "view",
      "type": "function",
      "constant": true
    },
    {
      "inputs": [
        {
          "internalType": "uint256",
          "name": "orderId",
          "type": "uint256"
        },
        {
          "internalType": "uint256",
          "name": "productId",
          "type": "uint256"
        },
        {
          "internalType": "uint256",
          "name": "quantity",
          "type": "uint256"
        }
      ],
      "name": "processOrder",
      "outputs": [],
      "stateMutability": "nonpayable",
      "type": "function"
    },
    {
      "inputs": [
        {
          "internalType": "uint256",
          "name": "productId",
          "type": "uint256"
        },
        {
          "internalType": "uint256",
          "name": "quantity",
          "type": "uint256"
        }
      ],
      "name": "checkInventory",
      "outputs": [
        {
          "internalType": "bool",
          "name": "",
          "type": "bool"
        }
      ],
      "stateMutability": "pure",
      "type": "function",
      "constant": true
    }
  ],
  "bytecode": "0x608060405234801561001057600080fd5b506040516108933803806108938339818101604052810190610032919061011d565b816000806101000a81548173ffffffffffffffffffffffffffffffffffffffff021916908373ffffffffffffffffffffffffffffffffffffffff16021790555080600160006101000a81548173ffffffffffffffffffffffffffffffffffffffff021916908373ffffffffffffffffffffffffffffffffffffffff160217905550505061015d565b600080fd5b600073ffffffffffffffffffffffffffffffffffffffff82169050919050565b60006100ea826100bf565b9050919050565b6100fa816100df565b811461010557600080fd5b50565b600081519050610117816100f1565b92915050565b60008060408385031215610134576101336100ba565b5b600061014285828601610108565b925050602061015385828601610108565b9150509250929050565b6107278061016c6000396000f3fe608060405234801561001057600080fd5b506004361061004c5760003560e01c806305b36f39146100515780637475428214610081578063ae2e377a1461009f578063dee8959c146100bd575b600080fd5b61006b600480360381019061006691906103ed565b6100d9565b6040516100789190610448565b60405180910390f35b61008961016a565b60405161009691906104a4565b60405180910390f35b6100a761018e565b6040516100b491906104a4565b60405180910390f35b6100d760048036038101906100d291906104bf565b6101b4565b005b600080831161011d576040517f08c379a00000000000000000000000000000000000000000000000000000000081526004016101149061056f565b60405180910390fd5b60008211610160576040517f08c379a000000000000000000000000000000000000000000000000000000000815260040161015790610601565b60405180910390fd5b6001905092915050565b60008054906101000a900473ffffffffffffffffffffffffffffffffffffffff1681565b600160009054906101000a900473ffffffffffffffffffffffffffffffffffffffff1681565b600081116101f7576040517f08c379a00000000000000000000000000000000000000000000000000000000081526004016101ee90610601565b60405180910390fd5b600061020383836100d9565b905080156102e157600160009054906101000a900473ffffffffffffffffffffffffffffffffffffffff1673ffffffffffffffffffffffffffffffffffffffff1663e24d4520858585336040518563ffffffff1660e01b815260040161026c9493929190610630565b600060405180830381600087803b15801561028657600080fd5b505af115801561029a573d6000803e3d6000fd5b505050507f8c4e6e18304dd29f7e2db1e2e98b19019f645c821d916f9bf3ab1dfd24fc077b84848460016040516102d49493929190610675565b60405180910390a16103ac565b60008054906101000a900473ffffffffffffffffffffffffffffffffffffffff1673ffffffffffffffffffffffffffffffffffffffff1663fc1448068585856040518463ffffffff1660e01b815260040161033e939291906106ba565b600060405180830381600087803b15801561035857600080fd5b505af115801561036c573d6000803e3d6000fd5b505050507fc4635d28ed6bd7110582924886183afa202b8de7e234dd15188374c902329fb08484846040516103a3939291906106ba565b60405180910390a15b50505050565b600080fd5b6000819050919050565b6103ca816103b7565b81146103d557600080fd5b50565b6000813590506103e7816103c1565b92915050565b60008060408385031215610404576104036103b2565b5b6000610412858286016103d8565b9250506020610423858286016103d8565b9150509250929050565b60008115159050919050565b6104428161042d565b82525050565b600060208201905061045d6000830184610439565b92915050565b600073ffffffffffffffffffffffffffffffffffffffff82169050919050565b600061048e82610463565b9050919050565b61049e81610483565b82525050565b60006020820190506104b96000830184610495565b92915050565b6000806000606084860312156104d8576104d76103b2565b5b60006104e6868287016103d8565b93505060206104f7868287016103d8565b9250506040610508868287016103d8565b9150509250925092565b600082825260208201905092915050565b7f496e76616c69642070726f647563744964000000000000000000000000000000600082015250565b6000610559601183610512565b915061056482610523565b602082019050919050565b600060208201905081810360008301526105888161054c565b9050919050565b7f5175616e74697479206d7573742062652067726561746572207468616e207a6560008201527f726f000000000000000000000000000000000000000000000000000000000000602082015250565b60006105eb602283610512565b91506105f68261058f565b604082019050919050565b6000602082019050818103600083015261061a816105de565b9050919050565b61062a816103b7565b82525050565b60006080820190506106456000830187610621565b6106526020830186610621565b61065f6040830185610621565b61066c6060830184610495565b95945050505050565b600060808201905061068a6000830187610621565b6106976020830186610621565b6106a46040830185610621565b6106b16060830184610439565b95945050505050565b60006060820190506106cf6000830186610621565b6106dc6020830185610621565b6106e96040830184610621565b94935050505056fea2646970667358221220179a48a193ebddbea0efdf9b81697a8319b3813c5c619eba525c5ca286fc698b64736f6c63430008110033",
  "immutableReferences": {},
  "source": "// SPDX-License-Identifier: MIT\r\n\r\npragma solidity ^0.8.17;\r\n\r\nimport \"./DeliveryContract.sol\";\r\nimport \"./ManufacturerContract.sol\";\r\n\r\n// Contract for handling distributor operations in a supply chain.\r\ncontract DistributorContract{\r\n    address public manufacturer;         // Address of the manufacturer\r\n    address public deliveryContract;     // Address of the delivery contract         // Address of the distributor\r\n\r\n    \r\n    event OrderProcessed(uint orderId, uint productId, uint quantity, bool isAvailable);   // Event emitted when an order is processed\r\n    \r\n    event ManufacturerContacted(uint orderId, uint productId, uint quantity);   // Event emitted when the manufacturer is contacted\r\n\r\n    \r\n\r\n    // Constructor to initialize the manufacturer and delivery contract addresses\r\n    constructor(address _manufacturer, address _deliveryContract) {\r\n        manufacturer = _manufacturer;\r\n        deliveryContract = _deliveryContract;\r\n      \r\n    }\r\n\r\n\r\n    // Function to process an order\r\n    function processOrder(uint orderId, uint productId, uint quantity) external {\r\n        // Check inventory availability\r\n        require(quantity > 0, \"Quantity must be greater than zero\"); // Validate input quantity\r\n        bool isAvailable = checkInventory(productId, quantity);\r\n        if (isAvailable) {\r\n            // If available, initiate delivery through the delivery contract.\r\n            DeliveryContract(deliveryContract).initiateDelivery(orderId, productId, quantity, msg.sender);\r\n            emit OrderProcessed(orderId, productId, quantity, true);   // Emit an event indicating the order was processed and available.\r\n        } else {\r\n            // If not available, contact the manufacturer to create the product\r\n            ManufacturerContract(manufacturer).createProduct(orderId, productId, quantity);\r\n            emit ManufacturerContacted(orderId, productId, quantity);   // Emit an event indicating the manufacturer was contacted.\r\n        }\r\n    }\r\n\r\n\r\n    // Internal function to check inventory\r\n    function checkInventory(uint productId, uint quantity) public pure returns (bool) {\r\n        // Implement inventory check logic here\r\n        require(productId > 0, \"Invalid productId\");\r\n        require(quantity > 0, \"Quantity must be greater than zero\");\r\n        return true; // Placeholder for actual inventory check\r\n    }\r\n}",
  "sourcePath": "C:\\Users\\alexk\\projects\\erpproject\\supplychain\\smart_contracts\\contracts\\DistributorContract.sol",
  "compiler": {
    "name": "solc",
    "version": "0.8.17+commit.8df45f5f.Emscripten.clang"
  },
  "schemaVersion": "3.4.16",
  "updatedAt": "2024-09-16T14:21:04.332Z",
  "networkType": "ethereum",
  "devdoc": {
    "kind": "dev",
    "methods": {},
    "version": 1
  },
  "userdoc": {
    "kind": "user",
    "methods": {},
    "version": 1
  }
}