{
  "contractName": "DistributorContract",
  "abi": [
    {
      "inputs": [
        {
          "internalType": "address",
          "name": "_manufacturer",
          "type": "address"
        },
        {
          "internalType": "address",
          "name": "_deliveryContract",
          "type": "address"
        }
      ],
      "stateMutability": "nonpayable",
      "type": "constructor"
    },
    {
      "anonymous": false,
      "inputs": [
        {
          "indexed": false,
          "internalType": "uint256",
          "name": "productId",
          "type": "uint256"
        },
        {
          "indexed": false,
          "internalType": "uint256",
          "name": "newQuantity",
          "type": "uint256"
        }
      ],
      "name": "InventoryUpdated",
      "type": "event"
    },
    {
      "anonymous": false,
      "inputs": [
        {
          "indexed": false,
          "internalType": "uint256",
          "name": "orderId",
          "type": "uint256"
        },
        {
          "indexed": false,
          "internalType": "uint256",
          "name": "productId",
          "type": "uint256"
        },
        {
          "indexed": false,
          "internalType": "uint256",
          "name": "quantity",
          "type": "uint256"
        }
      ],
      "name": "ManufacturerContacted",
      "type": "event"
    },
    {
      "anonymous": false,
      "inputs": [
        {
          "indexed": false,
          "internalType": "uint256",
          "name": "orderId",
          "type": "uint256"
        },
        {
          "indexed": false,
          "internalType": "uint256",
          "name": "productId",
          "type": "uint256"
        },
        {
          "indexed": false,
          "internalType": "uint256",
          "name": "quantity",
          "type": "uint256"
        },
        {
          "indexed": false,
          "internalType": "bool",
          "name": "isAvailable",
          "type": "bool"
        }
      ],
      "name": "OrderProcessed",
      "type": "event"
    },
    {
      "inputs": [],
      "name": "deliveryContract",
      "outputs": [
        {
          "internalType": "address",
          "name": "",
          "type": "address"
        }
      ],
      "stateMutability": "view",
      "type": "function",
      "constant": true
    },
    {
      "inputs": [
        {
          "internalType": "uint256",
          "name": "",
          "type": "uint256"
        }
      ],
      "name": "inventory",
      "outputs": [
        {
          "internalType": "uint256",
          "name": "productId",
          "type": "uint256"
        },
        {
          "internalType": "uint256",
          "name": "quantity",
          "type": "uint256"
        }
      ],
      "stateMutability": "view",
      "type": "function",
      "constant": true
    },
    {
      "inputs": [],
      "name": "manufacturer",
      "outputs": [
        {
          "internalType": "address",
          "name": "",
          "type": "address"
        }
      ],
      "stateMutability": "view",
      "type": "function",
      "constant": true
    },
    {
      "inputs": [
        {
          "internalType": "uint256",
          "name": "orderId",
          "type": "uint256"
        },
        {
          "internalType": "uint256",
          "name": "productId",
          "type": "uint256"
        },
        {
          "internalType": "uint256",
          "name": "quantity",
          "type": "uint256"
        }
      ],
      "name": "processOrder",
      "outputs": [],
      "stateMutability": "nonpayable",
      "type": "function"
    },
    {
      "inputs": [
        {
          "internalType": "uint256",
          "name": "productId",
          "type": "uint256"
        },
        {
          "internalType": "uint256",
          "name": "quantity",
          "type": "uint256"
        }
      ],
      "name": "checkInventory",
      "outputs": [
        {
          "internalType": "bool",
          "name": "",
          "type": "bool"
        }
      ],
      "stateMutability": "view",
      "type": "function",
      "constant": true
    },
    {
      "inputs": [
        {
          "internalType": "uint256",
          "name": "productId",
          "type": "uint256"
        },
        {
          "internalType": "uint256",
          "name": "quantity",
          "type": "uint256"
        }
      ],
      "name": "updateInventory",
      "outputs": [],
      "stateMutability": "nonpayable",
      "type": "function"
    }
  ],
  "bytecode": "0x608060405234801561001057600080fd5b50604051610a8d380380610a8d8339818101604052810190610032919061011d565b816000806101000a81548173ffffffffffffffffffffffffffffffffffffffff021916908373ffffffffffffffffffffffffffffffffffffffff16021790555080600160006101000a81548173ffffffffffffffffffffffffffffffffffffffff021916908373ffffffffffffffffffffffffffffffffffffffff160217905550505061015d565b600080fd5b600073ffffffffffffffffffffffffffffffffffffffff82169050919050565b60006100ea826100bf565b9050919050565b6100fa816100df565b811461010557600080fd5b50565b600081519050610117816100f1565b92915050565b60008060408385031215610134576101336100ba565b5b600061014285828601610108565b925050602061015385828601610108565b9150509250929050565b6109218061016c6000396000f3fe608060405234801561001057600080fd5b50600436106100625760003560e01c806305b36f39146100675780634272ee1814610097578063522547a8146100c857806374754282146100e4578063ae2e377a14610102578063dee8959c14610120575b600080fd5b610081600480360381019061007c9190610508565b61013c565b60405161008e9190610563565b60405180910390f35b6100b160048036038101906100ac919061057e565b6101a2565b6040516100bf9291906105ba565b60405180910390f35b6100e260048036038101906100dd9190610508565b6101c6565b005b6100ec610209565b6040516100f99190610624565b60405180910390f35b61010a61022d565b6040516101179190610624565b60405180910390f35b61013a6004803603810190610135919061063f565b610253565b005b6000808311610180576040517f08c379a000000000000000000000000000000000000000000000000000000000815260040161017790610715565b60405180910390fd5b8160026000858152602001908152602001600020600101541015905092915050565b60026020528060005260406000206000915090508060000154908060010154905082565b6040518060400160405280838152602001828152506002600084815260200190815260200160002060008201518160000155602082015181600101559050505050565b60008054906101000a900473ffffffffffffffffffffffffffffffffffffffff1681565b600160009054906101000a900473ffffffffffffffffffffffffffffffffffffffff1681565b60008111610296576040517f08c379a000000000000000000000000000000000000000000000000000000000815260040161028d906107a7565b60405180910390fd5b60006102a2838361013c565b905080156103fc57600160009054906101000a900473ffffffffffffffffffffffffffffffffffffffff1673ffffffffffffffffffffffffffffffffffffffff1663e24d4520858585336040518563ffffffff1660e01b815260040161030b94939291906107c7565b600060405180830381600087803b15801561032557600080fd5b505af1158015610339573d6000803e3d6000fd5b5050505081600260008581526020019081526020016000206001016000828254610363919061083b565b925050819055507fc3da32029c7581e1ff0ac81dbfdec1e6ffa311377c403de5640ea8ca50d8bc4b8360026000868152602001908152602001600020600101546040516103b19291906105ba565b60405180910390a17f8c4e6e18304dd29f7e2db1e2e98b19019f645c821d916f9bf3ab1dfd24fc077b84848460016040516103ef949392919061086f565b60405180910390a16104c7565b60008054906101000a900473ffffffffffffffffffffffffffffffffffffffff1673ffffffffffffffffffffffffffffffffffffffff1663fc1448068585856040518463ffffffff1660e01b8152600401610459939291906108b4565b600060405180830381600087803b15801561047357600080fd5b505af1158015610487573d6000803e3d6000fd5b505050507fc4635d28ed6bd7110582924886183afa202b8de7e234dd15188374c902329fb08484846040516104be939291906108b4565b60405180910390a15b50505050565b600080fd5b6000819050919050565b6104e5816104d2565b81146104f057600080fd5b50565b600081359050610502816104dc565b92915050565b6000806040838503121561051f5761051e6104cd565b5b600061052d858286016104f3565b925050602061053e858286016104f3565b9150509250929050565b60008115159050919050565b61055d81610548565b82525050565b60006020820190506105786000830184610554565b92915050565b600060208284031215610594576105936104cd565b5b60006105a2848285016104f3565b91505092915050565b6105b4816104d2565b82525050565b60006040820190506105cf60008301856105ab565b6105dc60208301846105ab565b9392505050565b600073ffffffffffffffffffffffffffffffffffffffff82169050919050565b600061060e826105e3565b9050919050565b61061e81610603565b82525050565b60006020820190506106396000830184610615565b92915050565b600080600060608486031215610658576106576104cd565b5b6000610666868287016104f3565b9350506020610677868287016104f3565b9250506040610688868287016104f3565b9150509250925092565b600082825260208201905092915050565b7f496e76616c69642070726f647563744964206f72206f7574206f662073746f6360008201527f6b00000000000000000000000000000000000000000000000000000000000000602082015250565b60006106ff602183610692565b915061070a826106a3565b604082019050919050565b6000602082019050818103600083015261072e816106f2565b9050919050565b7f5175616e74697479206d7573742062652067726561746572207468616e207a6560008201527f726f000000000000000000000000000000000000000000000000000000000000602082015250565b6000610791602283610692565b915061079c82610735565b604082019050919050565b600060208201905081810360008301526107c081610784565b9050919050565b60006080820190506107dc60008301876105ab565b6107e960208301866105ab565b6107f660408301856105ab565b6108036060830184610615565b95945050505050565b7f4e487b7100000000000000000000000000000000000000000000000000000000600052601160045260246000fd5b6000610846826104d2565b9150610851836104d2565b92508282039050818111156108695761086861080c565b5b92915050565b600060808201905061088460008301876105ab565b61089160208301866105ab565b61089e60408301856105ab565b6108ab6060830184610554565b95945050505050565b60006060820190506108c960008301866105ab565b6108d660208301856105ab565b6108e360408301846105ab565b94935050505056fea26469706673582212207a624f94ec02c9e504f855825a461e945b09fa58c3fe8bb511482582ef0ad06664736f6c63430008110033",
  "immutableReferences": {},
  "source": "// SPDX-License-Identifier: MIT\r\npragma solidity ^0.8.17;\r\n\r\nimport \"./DeliveryContract.sol\";\r\nimport \"./ManufacturerContract.sol\";\r\n\r\ncontract DistributorContract {\r\n    address public manufacturer;\r\n    address public deliveryContract;\r\n\r\n    // Inventory structure to track product quantities\r\n    struct InventoryItem {\r\n        uint256 productId;\r\n        uint256 quantity;\r\n    }\r\n\r\n    // Mapping to track the inventory for each product ID\r\n    mapping(uint256 => InventoryItem) public inventory;\r\n\r\n    event OrderProcessed(uint256 orderId, uint256 productId, uint256 quantity, bool isAvailable);\r\n    event ManufacturerContacted(uint256 orderId, uint256 productId, uint256 quantity);\r\n    event InventoryUpdated(uint256 productId, uint256 newQuantity);  // New event for inventory updates\r\n\r\n    constructor(address _manufacturer, address _deliveryContract) {\r\n        manufacturer = _manufacturer;\r\n        deliveryContract = _deliveryContract;\r\n    }\r\n\r\n    // Function to process an order\r\n    function processOrder(uint256 orderId, uint256 productId, uint256 quantity) external {\r\n        require(quantity > 0, \"Quantity must be greater than zero\");\r\n\r\n        // Check inventory availability\r\n        bool isAvailable = checkInventory(productId, quantity);\r\n        if (isAvailable) {\r\n            // Initiate delivery if the product is available\r\n            DeliveryContract(deliveryContract).initiateDelivery(orderId, productId, quantity, msg.sender);\r\n            \r\n            // Update inventory after order processing\r\n            inventory[productId].quantity -= quantity;\r\n            emit InventoryUpdated(productId, inventory[productId].quantity);\r\n            \r\n            emit OrderProcessed(orderId, productId, quantity, true);\r\n        } else {\r\n            // Contact the manufacturer if the product is not available\r\n            ManufacturerContract(manufacturer).createProduct(orderId, productId, quantity);\r\n            emit ManufacturerContacted(orderId, productId, quantity);\r\n        }\r\n    }\r\n\r\n    function checkInventory(uint256 productId, uint256 quantity) public view returns (bool) {\r\n    // Ensure productId is valid and in stock\r\n    require(productId > 0, \"Invalid productId or out of stock\");\r\n    return inventory[productId].quantity >= quantity;\r\n}\r\n\r\n\r\n    // Function to add or update inventory (For demonstration purposes)\r\n    function updateInventory(uint256 productId, uint256 quantity) external {\r\n        inventory[productId] = InventoryItem(productId, quantity);\r\n    }\r\n}\r\n",
  "sourcePath": "C:\\Users\\alexk\\projects\\erpproject\\supplychain\\smart_contracts\\contracts\\DistributorContract.sol",
  "compiler": {
    "name": "solc",
    "version": "0.8.17+commit.8df45f5f.Emscripten.clang"
  },
  "schemaVersion": "3.4.16",
  "updatedAt": "2024-09-19T12:29:26.033Z",
  "networkType": "ethereum",
  "devdoc": {
    "kind": "dev",
    "methods": {},
    "version": 1
  },
  "userdoc": {
    "kind": "user",
    "methods": {},
    "version": 1
  }
}