{
  "contractName": "DistributorContract",
  "abi": [
    {
      "inputs": [
        {
          "internalType": "address",
          "name": "_manufacturer",
          "type": "address"
        },
        {
          "internalType": "address",
          "name": "_deliveryContract",
          "type": "address"
        }
      ],
      "stateMutability": "nonpayable",
      "type": "constructor"
    },
    {
      "anonymous": false,
      "inputs": [
        {
          "indexed": false,
          "internalType": "uint256",
          "name": "productId",
          "type": "uint256"
        },
        {
          "indexed": false,
          "internalType": "uint256",
          "name": "newQuantity",
          "type": "uint256"
        }
      ],
      "name": "InventoryUpdated",
      "type": "event"
    },
    {
      "anonymous": false,
      "inputs": [
        {
          "indexed": false,
          "internalType": "uint256",
          "name": "orderId",
          "type": "uint256"
        },
        {
          "indexed": false,
          "internalType": "uint256",
          "name": "productId",
          "type": "uint256"
        },
        {
          "indexed": false,
          "internalType": "uint256",
          "name": "quantity",
          "type": "uint256"
        }
      ],
      "name": "ManufacturerContacted",
      "type": "event"
    },
    {
      "anonymous": false,
      "inputs": [
        {
          "indexed": false,
          "internalType": "uint256",
          "name": "orderId",
          "type": "uint256"
        },
        {
          "indexed": false,
          "internalType": "uint256",
          "name": "productId",
          "type": "uint256"
        },
        {
          "indexed": false,
          "internalType": "uint256",
          "name": "quantity",
          "type": "uint256"
        }
      ],
      "name": "ManufacturerNotified",
      "type": "event"
    },
    {
      "inputs": [],
      "name": "deliveryContract",
      "outputs": [
        {
          "internalType": "address",
          "name": "",
          "type": "address"
        }
      ],
      "stateMutability": "view",
      "type": "function",
      "constant": true
    },
    {
      "inputs": [
        {
          "internalType": "uint256",
          "name": "",
          "type": "uint256"
        }
      ],
      "name": "inventory",
      "outputs": [
        {
          "internalType": "uint256",
          "name": "productId",
          "type": "uint256"
        },
        {
          "internalType": "uint256",
          "name": "quantity",
          "type": "uint256"
        }
      ],
      "stateMutability": "view",
      "type": "function",
      "constant": true
    },
    {
      "inputs": [],
      "name": "manufacturer",
      "outputs": [
        {
          "internalType": "address",
          "name": "",
          "type": "address"
        }
      ],
      "stateMutability": "view",
      "type": "function",
      "constant": true
    },
    {
      "inputs": [
        {
          "internalType": "uint256",
          "name": "orderId",
          "type": "uint256"
        },
        {
          "internalType": "uint256",
          "name": "productId",
          "type": "uint256"
        },
        {
          "internalType": "uint256",
          "name": "quantity",
          "type": "uint256"
        }
      ],
      "name": "checkInventory",
      "outputs": [
        {
          "internalType": "bool",
          "name": "",
          "type": "bool"
        }
      ],
      "stateMutability": "nonpayable",
      "type": "function"
    },
    {
      "inputs": [
        {
          "internalType": "uint256",
          "name": "productId",
          "type": "uint256"
        },
        {
          "internalType": "uint256",
          "name": "quantity",
          "type": "uint256"
        }
      ],
      "name": "updateInventory",
      "outputs": [],
      "stateMutability": "nonpayable",
      "type": "function"
    }
  ],
  "bytecode": "0x608060405234801561001057600080fd5b5060405161060c38038061060c8339818101604052810190610032919061011d565b816000806101000a81548173ffffffffffffffffffffffffffffffffffffffff021916908373ffffffffffffffffffffffffffffffffffffffff16021790555080600160006101000a81548173ffffffffffffffffffffffffffffffffffffffff021916908373ffffffffffffffffffffffffffffffffffffffff160217905550505061015d565b600080fd5b600073ffffffffffffffffffffffffffffffffffffffff82169050919050565b60006100ea826100bf565b9050919050565b6100fa816100df565b811461010557600080fd5b50565b600081519050610117816100f1565b92915050565b60008060408385031215610134576101336100ba565b5b600061014285828601610108565b925050602061015385828601610108565b9150509250929050565b6104a08061016c6000396000f3fe608060405234801561001057600080fd5b50600436106100575760003560e01c80634272ee181461005c578063522547a81461008d57806374754282146100a957806383225585146100c7578063ae2e377a146100f7575b600080fd5b610076600480360381019061007191906102a9565b610115565b6040516100849291906102e5565b60405180910390f35b6100a760048036038101906100a2919061030e565b610139565b005b6100b16101b5565b6040516100be919061038f565b60405180910390f35b6100e160048036038101906100dc91906103aa565b6101d9565b6040516100ee9190610418565b60405180910390f35b6100ff610248565b60405161010c919061038f565b60405180910390f35b60026020528060005260406000206000915090508060000154908060010154905082565b6040518060400160405280838152602001828152506002600084815260200190815260200160002060008201518160000155602082015181600101559050507fc3da32029c7581e1ff0ac81dbfdec1e6ffa311377c403de5640ea8ca50d8bc4b82826040516101a99291906102e5565b60405180910390a15050565b60008054906101000a900473ffffffffffffffffffffffffffffffffffffffff1681565b6000816002600085815260200190815260200160002060010154106102015760019050610241565b7fb4880325ef91249761983e16d7447587942b150034bf80fcc68cab8a6e63d5dd84848460405161023493929190610433565b60405180910390a1600090505b9392505050565b600160009054906101000a900473ffffffffffffffffffffffffffffffffffffffff1681565b600080fd5b6000819050919050565b61028681610273565b811461029157600080fd5b50565b6000813590506102a38161027d565b92915050565b6000602082840312156102bf576102be61026e565b5b60006102cd84828501610294565b91505092915050565b6102df81610273565b82525050565b60006040820190506102fa60008301856102d6565b61030760208301846102d6565b9392505050565b600080604083850312156103255761032461026e565b5b600061033385828601610294565b925050602061034485828601610294565b9150509250929050565b600073ffffffffffffffffffffffffffffffffffffffff82169050919050565b60006103798261034e565b9050919050565b6103898161036e565b82525050565b60006020820190506103a46000830184610380565b92915050565b6000806000606084860312156103c3576103c261026e565b5b60006103d186828701610294565b93505060206103e286828701610294565b92505060406103f386828701610294565b9150509250925092565b60008115159050919050565b610412816103fd565b82525050565b600060208201905061042d6000830184610409565b92915050565b600060608201905061044860008301866102d6565b61045560208301856102d6565b61046260408301846102d6565b94935050505056fea26469706673582212208b5405e784a8a2ac0edcce7b0c407015b9061f64f69d5432a5879d634b65833164736f6c63430008110033",
  "immutableReferences": {},
  "source": "// SPDX-License-Identifier: MIT\r\npragma solidity ^0.8.17;\r\n\r\nimport \"./DeliveryContract.sol\";\r\nimport \"./ManufacturerContract.sol\";\r\n\r\ncontract DistributorContract {\r\n    address public manufacturer;\r\n    address public deliveryContract;\r\n\r\n    // Inventory structure to track product quantities\r\n    struct InventoryItem {\r\n        uint256 productId;\r\n        uint256 quantity;\r\n    }\r\n\r\n    // Mapping to track the inventory for each product ID\r\n    mapping(uint256 => InventoryItem) public inventory;\r\n\r\n    //event OrderProcessed(uint256 orderId, uint256 productId, uint256 quantity, bool isAvailable);\r\n    event ManufacturerContacted(uint256 orderId, uint256 productId, uint256 quantity);\r\n    event InventoryUpdated(uint256 productId, uint256 newQuantity);  // New event for inventory updates\r\n    event ManufacturerNotified(uint256 orderId, uint256 productId, uint256 quantity);\r\n\r\n    constructor(address _manufacturer, address _deliveryContract) {\r\n        manufacturer = _manufacturer;\r\n        deliveryContract = _deliveryContract;\r\n    }\r\n\r\n    // Function to process an order\r\n    /*function processOrder(uint256 orderId, uint256 productId, uint256 quantity) external {\r\n        require(quantity > 0, \"Quantity must be greater than zero\");\r\n\r\n        // Check inventory availability\r\n        bool isAvailable = checkInventory(productId, quantity);\r\n        if (isAvailable) {\r\n            // Initiate delivery if the product is available\r\n            DeliveryContract(deliveryContract).initiateDelivery(orderId, productId, quantity, msg.sender);\r\n            \r\n            // Update inventory after order processing\r\n            inventory[productId].quantity -= quantity;\r\n            emit InventoryUpdated(productId, inventory[productId].quantity);\r\n            \r\n            emit OrderProcessed(orderId, productId, quantity, true);\r\n        } else {\r\n            // Contact the manufacturer if the product is not available\r\n            ManufacturerContract(manufacturer).createProduct(orderId, productId, quantity);\r\n            emit ManufacturerContacted(orderId, productId, quantity);\r\n        }\r\n    }\r\n   */ \r\n\r\n     function checkInventory(uint256 orderId, uint256 productId, uint256 quantity) public returns (bool) {\r\n        // Ensure productId is valid and in stock\r\n        if (inventory[productId].quantity >= quantity) {\r\n            return true;\r\n        } else {\r\n            // Notify manufacturer if inventory is insufficient\r\n            emit ManufacturerNotified(orderId, productId, quantity);\r\n            return false;\r\n        }\r\n    }\r\n\r\n\r\n    // Function to add or update inventory (For demonstration purposes)\r\n    function updateInventory(uint256 productId, uint256 quantity) external {\r\n        inventory[productId] = InventoryItem(productId, quantity);\r\n        emit InventoryUpdated(productId, quantity);\r\n    }\r\n\r\n    \r\n}\r\n",
  "sourcePath": "C:\\Users\\alexk\\projects\\erpproject\\supplychain\\smart_contracts\\contracts\\DistributorContract.sol",
  "compiler": {
    "name": "solc",
    "version": "0.8.17+commit.8df45f5f.Emscripten.clang"
  },
  "schemaVersion": "3.4.16",
  "updatedAt": "2024-09-20T10:43:33.685Z",
  "networkType": "ethereum",
  "devdoc": {
    "kind": "dev",
    "methods": {},
    "version": 1
  },
  "userdoc": {
    "kind": "user",
    "methods": {},
    "version": 1
  }
}