{
  "contractName": "ManufacturerContract",
  "abi": [
    {
      "inputs": [
        {
          "internalType": "address",
          "name": "_deliveryContract",
          "type": "address"
        }
      ],
      "stateMutability": "nonpayable",
      "type": "constructor"
    },
    {
      "anonymous": false,
      "inputs": [
        {
          "indexed": false,
          "internalType": "uint256",
          "name": "orderId",
          "type": "uint256"
        },
        {
          "indexed": false,
          "internalType": "uint256",
          "name": "productId",
          "type": "uint256"
        },
        {
          "indexed": false,
          "internalType": "uint256",
          "name": "quantity",
          "type": "uint256"
        }
      ],
      "name": "ProductCreated",
      "type": "event"
    },
    {
      "anonymous": false,
      "inputs": [
        {
          "indexed": false,
          "internalType": "uint256",
          "name": "productId",
          "type": "uint256"
        },
        {
          "indexed": false,
          "internalType": "uint256",
          "name": "quantity",
          "type": "uint256"
        }
      ],
      "name": "RawMaterialsRequested",
      "type": "event"
    },
    {
      "anonymous": false,
      "inputs": [
        {
          "indexed": false,
          "internalType": "uint256",
          "name": "productId",
          "type": "uint256"
        },
        {
          "indexed": false,
          "internalType": "uint256",
          "name": "quantity",
          "type": "uint256"
        }
      ],
      "name": "RawMaterialsSupplied",
      "type": "event"
    },
    {
      "inputs": [],
      "name": "deliveryContract",
      "outputs": [
        {
          "internalType": "address",
          "name": "",
          "type": "address"
        }
      ],
      "stateMutability": "view",
      "type": "function",
      "constant": true
    },
    {
      "inputs": [
        {
          "internalType": "uint256",
          "name": "orderId",
          "type": "uint256"
        },
        {
          "internalType": "uint256",
          "name": "productId",
          "type": "uint256"
        },
        {
          "internalType": "uint256",
          "name": "quantity",
          "type": "uint256"
        }
      ],
      "name": "createProduct",
      "outputs": [],
      "stateMutability": "nonpayable",
      "type": "function"
    }
  ],
  "bytecode": "0x608060405234801561001057600080fd5b506040516104d73803806104d7833981810160405281019061003291906100db565b806000806101000a81548173ffffffffffffffffffffffffffffffffffffffff021916908373ffffffffffffffffffffffffffffffffffffffff16021790555050610108565b600080fd5b600073ffffffffffffffffffffffffffffffffffffffff82169050919050565b60006100a88261007d565b9050919050565b6100b88161009d565b81146100c357600080fd5b50565b6000815190506100d5816100af565b92915050565b6000602082840312156100f1576100f0610078565b5b60006100ff848285016100c6565b91505092915050565b6103c0806101176000396000f3fe608060405234801561001057600080fd5b50600436106100365760003560e01c8063ae2e377a1461003b578063fc14480614610059575b600080fd5b610043610075565b60405161005091906101cf565b60405180910390f35b610073600480360381019061006e9190610225565b610099565b005b60008054906101000a900473ffffffffffffffffffffffffffffffffffffffff1681565b600081116100dc576040517f08c379a00000000000000000000000000000000000000000000000000000000081526004016100d3906102fb565b60405180910390fd5b7fae80db888261120ee7971490335904b4518ae5bbf3e62cad59f56d51b9900e26828260405161010d92919061032a565b60405180910390a17faa3b05d78876d1fe48fac09c7003e37ac1742bc2f23179167046c3b331e8243a828260405161014692919061032a565b60405180910390a17f8cc8407e8e312793609edf72bf9634abea0b768b26e1dfbbd3a16e546ab8dc7783838360405161018193929190610353565b60405180910390a1505050565b600073ffffffffffffffffffffffffffffffffffffffff82169050919050565b60006101b98261018e565b9050919050565b6101c9816101ae565b82525050565b60006020820190506101e460008301846101c0565b92915050565b600080fd5b6000819050919050565b610202816101ef565b811461020d57600080fd5b50565b60008135905061021f816101f9565b92915050565b60008060006060848603121561023e5761023d6101ea565b5b600061024c86828701610210565b935050602061025d86828701610210565b925050604061026e86828701610210565b9150509250925092565b600082825260208201905092915050565b7f5175616e74697479206d7573742062652067726561746572207468616e207a6560008201527f726f000000000000000000000000000000000000000000000000000000000000602082015250565b60006102e5602283610278565b91506102f082610289565b604082019050919050565b60006020820190508181036000830152610314816102d8565b9050919050565b610324816101ef565b82525050565b600060408201905061033f600083018561031b565b61034c602083018461031b565b9392505050565b6000606082019050610368600083018661031b565b610375602083018561031b565b610382604083018461031b565b94935050505056fea2646970667358221220a05d44fd5feb8faa27a06d3accb020ce40dfb3b670061355e43c85fbae45a7ad64736f6c63430008110033",
  "immutableReferences": {},
  "source": "// SPDX-License-Identifier: MIT\r\npragma solidity ^0.8.17;\r\n\r\nimport \"./DeliveryContract.sol\";\r\n\r\n// Contract for handling manufacturer operations in a supply chain.\r\ncontract ManufacturerContract {\r\n\r\n    address public deliveryContract;   // Address of the delivery contract\r\n    \r\n\r\n    \r\n    event ProductCreated(uint orderId, uint productId, uint quantity);   // Event emitted when a product is created\r\n  \r\n    event RawMaterialsRequested(uint productId, uint quantity);     // Event emitted when raw materials are requested\r\n\r\n    event RawMaterialsSupplied(uint productId, uint quantity);    // Event emitted when raw materials are supplied\r\n\r\n\r\n    // Constructor to initialize the supplier and delivery contract addresses\r\n    constructor(address _deliveryContract) {\r\n        deliveryContract = _deliveryContract;\r\n        \r\n    }\r\n\r\n    // Function to create a product\r\n    function createProduct(uint orderId, uint productId, uint quantity) external {\r\n        require(quantity > 0, \"Quantity must be greater than zero\");   // Validate input quantity\r\n        emit RawMaterialsRequested(productId, quantity);   // Emit an event indicating raw materials were requested.\r\n        emit RawMaterialsSupplied(productId, quantity);    // Emit an event indicating raw materials were supplied.\r\n        emit ProductCreated(orderId, productId, quantity);  // Emit an event indicating the product was created.\r\n\r\n    }\r\n\r\n}",
  "sourcePath": "C:\\Users\\alexk\\projects\\erpproject\\supplychain\\smart_contracts\\contracts\\ManufacturerContract.sol",
  "compiler": {
    "name": "solc",
    "version": "0.8.17+commit.8df45f5f.Emscripten.clang"
  },
  "schemaVersion": "3.4.16",
  "updatedAt": "2024-09-16T14:21:04.323Z",
  "networkType": "ethereum",
  "devdoc": {
    "kind": "dev",
    "methods": {},
    "version": 1
  },
  "userdoc": {
    "kind": "user",
    "methods": {},
    "version": 1
  }
}