{
  "contractName": "RetailStoreContract",
  "abi": [
    {
      "inputs": [
        {
          "internalType": "address",
          "name": "_distributor",
          "type": "address"
        },
        {
          "internalType": "address",
          "name": "_deliveryContract",
          "type": "address"
        }
      ],
      "stateMutability": "nonpayable",
      "type": "constructor"
    },
    {
      "anonymous": false,
      "inputs": [
        {
          "indexed": false,
          "internalType": "uint256",
          "name": "orderId",
          "type": "uint256"
        }
      ],
      "name": "DeliveryConfirmed",
      "type": "event"
    },
    {
      "anonymous": false,
      "inputs": [
        {
          "indexed": false,
          "internalType": "uint256",
          "name": "orderId",
          "type": "uint256"
        },
        {
          "indexed": false,
          "internalType": "uint256",
          "name": "productId",
          "type": "uint256"
        },
        {
          "indexed": false,
          "internalType": "uint256",
          "name": "quantity",
          "type": "uint256"
        },
        {
          "indexed": false,
          "internalType": "address",
          "name": "retailStore",
          "type": "address"
        }
      ],
      "name": "OrderPlaced",
      "type": "event"
    },
    {
      "inputs": [],
      "name": "deliveryContract",
      "outputs": [
        {
          "internalType": "address",
          "name": "",
          "type": "address"
        }
      ],
      "stateMutability": "view",
      "type": "function",
      "constant": true
    },
    {
      "inputs": [],
      "name": "distributor",
      "outputs": [
        {
          "internalType": "address",
          "name": "",
          "type": "address"
        }
      ],
      "stateMutability": "view",
      "type": "function",
      "constant": true
    },
    {
      "inputs": [
        {
          "internalType": "uint256",
          "name": "orderId",
          "type": "uint256"
        },
        {
          "internalType": "uint256",
          "name": "productId",
          "type": "uint256"
        },
        {
          "internalType": "uint256",
          "name": "quantity",
          "type": "uint256"
        }
      ],
      "name": "placeOrder",
      "outputs": [],
      "stateMutability": "nonpayable",
      "type": "function"
    },
    {
      "inputs": [
        {
          "internalType": "uint256",
          "name": "orderId",
          "type": "uint256"
        }
      ],
      "name": "confirmDelivery",
      "outputs": [],
      "stateMutability": "nonpayable",
      "type": "function"
    }
  ],
  "bytecode": "0x608060405234801561001057600080fd5b506040516106263803806106268339818101604052810190610032919061011d565b816000806101000a81548173ffffffffffffffffffffffffffffffffffffffff021916908373ffffffffffffffffffffffffffffffffffffffff16021790555080600160006101000a81548173ffffffffffffffffffffffffffffffffffffffff021916908373ffffffffffffffffffffffffffffffffffffffff160217905550505061015d565b600080fd5b600073ffffffffffffffffffffffffffffffffffffffff82169050919050565b60006100ea826100bf565b9050919050565b6100fa816100df565b811461010557600080fd5b50565b600081519050610117816100f1565b92915050565b60008060408385031215610134576101336100ba565b5b600061014285828601610108565b925050602061015385828601610108565b9150509250929050565b6104ba8061016c6000396000f3fe608060405234801561001057600080fd5b506004361061004c5760003560e01c80630e97cfdf14610051578063ae2e377a1461006d578063bfe109281461008b578063fd84cb97146100a9575b600080fd5b61006b60048036038101906100669190610296565b6100c5565b005b61007561014a565b604051610082919061032a565b60405180910390f35b610093610170565b6040516100a0919061032a565b60405180910390f35b6100c360048036038101906100be9190610345565b610194565b005b60008111610108576040517f08c379a00000000000000000000000000000000000000000000000000000000081526004016100ff906103f5565b60405180910390fd5b7f38006337c8ef9eb43639313dc923007658991bf77df22b9abe415cec1eaa395b8383833360405161013d9493929190610424565b60405180910390a1505050565b600160009054906101000a900473ffffffffffffffffffffffffffffffffffffffff1681565b60008054906101000a900473ffffffffffffffffffffffffffffffffffffffff1681565b600160009054906101000a900473ffffffffffffffffffffffffffffffffffffffff1673ffffffffffffffffffffffffffffffffffffffff1663fd84cb97826040518263ffffffff1660e01b81526004016101ef9190610469565b600060405180830381600087803b15801561020957600080fd5b505af115801561021d573d6000803e3d6000fd5b505050507f375b4005eeae25d0e37d56e1b3841d3bb394b277efa2548de3293f5dcb7a3493816040516102509190610469565b60405180910390a150565b600080fd5b6000819050919050565b61027381610260565b811461027e57600080fd5b50565b6000813590506102908161026a565b92915050565b6000806000606084860312156102af576102ae61025b565b5b60006102bd86828701610281565b93505060206102ce86828701610281565b92505060406102df86828701610281565b9150509250925092565b600073ffffffffffffffffffffffffffffffffffffffff82169050919050565b6000610314826102e9565b9050919050565b61032481610309565b82525050565b600060208201905061033f600083018461031b565b92915050565b60006020828403121561035b5761035a61025b565b5b600061036984828501610281565b91505092915050565b600082825260208201905092915050565b7f5175616e74697479206d7573742062652067726561746572207468616e207a6560008201527f726f000000000000000000000000000000000000000000000000000000000000602082015250565b60006103df602283610372565b91506103ea82610383565b604082019050919050565b6000602082019050818103600083015261040e816103d2565b9050919050565b61041e81610260565b82525050565b60006080820190506104396000830187610415565b6104466020830186610415565b6104536040830185610415565b610460606083018461031b565b95945050505050565b600060208201905061047e6000830184610415565b9291505056fea26469706673582212202f25d0b8b1f8ce5f6a1ae714ff09b5f73a455de574b767a3b8639c113bb258a864736f6c63430008110033",
  "immutableReferences": {},
  "source": "// SPDX-License-Identifier: MIT\r\npragma solidity ^0.8.17;\r\n\r\nimport \"./DistributorContract.sol\";\r\nimport \"./DeliveryContract.sol\";\r\n\r\n\r\n// Contract for handling retail store operations in a supply chain.\r\ncontract RetailStoreContract {\r\n    address public distributor;       // Address of the distributor\r\n    address public deliveryContract;  // Address of the delivery contract\r\n    \r\n\r\n  \r\n    event OrderPlaced(uint orderId, uint productId, uint quantity, address retailStore);     // Event emitted when an order is placed\r\n    \r\n    event DeliveryConfirmed(uint orderId);  // Event emitted when the delivery is confirmed\r\n\r\n   \r\n    // Constructor to initialize the manufacturer and delivery contract addresses\r\n    constructor(address _distributor, address _deliveryContract) {\r\n        distributor = _distributor;\r\n        deliveryContract = _deliveryContract;\r\n        \r\n    }\r\n\r\n    // Function to place an order\r\n    function placeOrder(uint orderId, uint productId, uint quantity) external {\r\n        require(quantity > 0, \"Quantity must be greater than zero\"); // Validate input quantity\r\n        emit OrderPlaced(orderId, productId, quantity, msg.sender);    // Emit an event indicating the order was placed\r\n        \r\n        \r\n    }\r\n\r\n    // Function to confirm delivery\r\n    function confirmDelivery(uint orderId) external{\r\n        DeliveryContract(deliveryContract).confirmDelivery(orderId);    // Call the confirmDelivery function in the DeliveryContract to confirm the delivery\r\n        emit DeliveryConfirmed(orderId);  // Emit an event indicating the delivery was confirmed.\r\n    }\r\n}",
  "sourcePath": "C:\\Users\\alexk\\projects\\erpproject\\supplychain\\smart_contracts\\contracts\\RetailstoreContract.sol",
  "compiler": {
    "name": "solc",
    "version": "0.8.17+commit.8df45f5f.Emscripten.clang"
  },
  "schemaVersion": "3.4.16",
  "updatedAt": "2024-09-19T12:29:26.041Z",
  "networkType": "ethereum",
  "devdoc": {
    "kind": "dev",
    "methods": {},
    "version": 1
  },
  "userdoc": {
    "kind": "user",
    "methods": {},
    "version": 1
  }
}