{
  "contractName": "RetailStoreContract",
  "abi": [
    {
      "inputs": [
        {
          "internalType": "address",
          "name": "_distributor",
          "type": "address"
        },
        {
          "internalType": "address",
          "name": "_deliveryContract",
          "type": "address"
        }
      ],
      "stateMutability": "nonpayable",
      "type": "constructor"
    },
    {
      "anonymous": false,
      "inputs": [
        {
          "indexed": false,
          "internalType": "uint256",
          "name": "orderId",
          "type": "uint256"
        }
      ],
      "name": "DeliveryConfirmed",
      "type": "event"
    },
    {
      "anonymous": false,
      "inputs": [
        {
          "indexed": false,
          "internalType": "uint256",
          "name": "orderId",
          "type": "uint256"
        },
        {
          "indexed": false,
          "internalType": "uint256",
          "name": "productId",
          "type": "uint256"
        },
        {
          "indexed": false,
          "internalType": "uint256",
          "name": "quantity",
          "type": "uint256"
        }
      ],
      "name": "OrderPlaced",
      "type": "event"
    },
    {
      "inputs": [],
      "name": "deliveryContract",
      "outputs": [
        {
          "internalType": "address",
          "name": "",
          "type": "address"
        }
      ],
      "stateMutability": "view",
      "type": "function",
      "constant": true
    },
    {
      "inputs": [],
      "name": "distributor",
      "outputs": [
        {
          "internalType": "address",
          "name": "",
          "type": "address"
        }
      ],
      "stateMutability": "view",
      "type": "function",
      "constant": true
    },
    {
      "inputs": [
        {
          "internalType": "uint256",
          "name": "orderId",
          "type": "uint256"
        },
        {
          "internalType": "uint256",
          "name": "productId",
          "type": "uint256"
        },
        {
          "internalType": "uint256",
          "name": "quantity",
          "type": "uint256"
        }
      ],
      "name": "placeOrder",
      "outputs": [],
      "stateMutability": "nonpayable",
      "type": "function"
    },
    {
      "inputs": [
        {
          "internalType": "uint256",
          "name": "orderId",
          "type": "uint256"
        }
      ],
      "name": "confirmDelivery",
      "outputs": [],
      "stateMutability": "nonpayable",
      "type": "function"
    }
  ],
  "bytecode": "0x608060405234801561001057600080fd5b506040516106a53803806106a58339818101604052810190610032919061011d565b816000806101000a81548173ffffffffffffffffffffffffffffffffffffffff021916908373ffffffffffffffffffffffffffffffffffffffff16021790555080600160006101000a81548173ffffffffffffffffffffffffffffffffffffffff021916908373ffffffffffffffffffffffffffffffffffffffff160217905550505061015d565b600080fd5b600073ffffffffffffffffffffffffffffffffffffffff82169050919050565b60006100ea826100bf565b9050919050565b6100fa816100df565b811461010557600080fd5b50565b600081519050610117816100f1565b92915050565b60008060408385031215610134576101336100ba565b5b600061014285828601610108565b925050602061015385828601610108565b9150509250929050565b6105398061016c6000396000f3fe608060405234801561001057600080fd5b506004361061004c5760003560e01c80630e97cfdf14610051578063ae2e377a1461006d578063bfe109281461008b578063fd84cb97146100a9575b600080fd5b61006b60048036038101906100669190610323565b6100c5565b005b6100756101d7565b60405161008291906103b7565b60405180910390f35b6100936101fd565b6040516100a091906103b7565b60405180910390f35b6100c360048036038101906100be91906103d2565b610221565b005b60008111610108576040517f08c379a00000000000000000000000000000000000000000000000000000000081526004016100ff90610482565b60405180910390fd5b60008054906101000a900473ffffffffffffffffffffffffffffffffffffffff1673ffffffffffffffffffffffffffffffffffffffff1663dee8959c8484846040518463ffffffff1660e01b8152600401610165939291906104b1565b600060405180830381600087803b15801561017f57600080fd5b505af1158015610193573d6000803e3d6000fd5b505050507f4e3753386201ff4fa2fe7c9a2bdce7cea2028030bb57c7596e089ec9aa5feadb8383836040516101ca939291906104b1565b60405180910390a1505050565b600160009054906101000a900473ffffffffffffffffffffffffffffffffffffffff1681565b60008054906101000a900473ffffffffffffffffffffffffffffffffffffffff1681565b600160009054906101000a900473ffffffffffffffffffffffffffffffffffffffff1673ffffffffffffffffffffffffffffffffffffffff1663fd84cb97826040518263ffffffff1660e01b815260040161027c91906104e8565b600060405180830381600087803b15801561029657600080fd5b505af11580156102aa573d6000803e3d6000fd5b505050507f375b4005eeae25d0e37d56e1b3841d3bb394b277efa2548de3293f5dcb7a3493816040516102dd91906104e8565b60405180910390a150565b600080fd5b6000819050919050565b610300816102ed565b811461030b57600080fd5b50565b60008135905061031d816102f7565b92915050565b60008060006060848603121561033c5761033b6102e8565b5b600061034a8682870161030e565b935050602061035b8682870161030e565b925050604061036c8682870161030e565b9150509250925092565b600073ffffffffffffffffffffffffffffffffffffffff82169050919050565b60006103a182610376565b9050919050565b6103b181610396565b82525050565b60006020820190506103cc60008301846103a8565b92915050565b6000602082840312156103e8576103e76102e8565b5b60006103f68482850161030e565b91505092915050565b600082825260208201905092915050565b7f5175616e74697479206d7573742062652067726561746572207468616e207a6560008201527f726f000000000000000000000000000000000000000000000000000000000000602082015250565b600061046c6022836103ff565b915061047782610410565b604082019050919050565b6000602082019050818103600083015261049b8161045f565b9050919050565b6104ab816102ed565b82525050565b60006060820190506104c660008301866104a2565b6104d360208301856104a2565b6104e060408301846104a2565b949350505050565b60006020820190506104fd60008301846104a2565b9291505056fea2646970667358221220c24fe4ec1743ff083af29f1d1b8adbca37a6a549dbc800af01dfe9b1d82beb4064736f6c63430008110033",
  "immutableReferences": {},
  "source": "// SPDX-License-Identifier: MIT\r\npragma solidity ^0.8.17;\r\n\r\nimport \"./DistributorContract.sol\";\r\nimport \"./DeliveryContract.sol\";\r\n\r\n\r\n// Contract for handling retail store operations in a supply chain.\r\ncontract RetailStoreContract {\r\n    address public distributor;       // Address of the distributor\r\n    address public deliveryContract;  // Address of the delivery contract\r\n    \r\n\r\n  \r\n    event OrderPlaced(uint orderId, uint productId, uint quantity);     // Event emitted when an order is placed\r\n    \r\n    event DeliveryConfirmed(uint orderId);  // Event emitted when the delivery is confirmed\r\n\r\n   \r\n    // Constructor to initialize the manufacturer and delivery contract addresses\r\n    constructor(address _distributor, address _deliveryContract) {\r\n        distributor = _distributor;\r\n        deliveryContract = _deliveryContract;\r\n        \r\n    }\r\n\r\n    // Function to place an order\r\n    function placeOrder(uint orderId, uint productId, uint quantity) external {\r\n        require(quantity > 0, \"Quantity must be greater than zero\"); // Validate input quantity\r\n        DistributorContract(distributor).processOrder(orderId, productId, quantity);   // Call the processOrder function in the DistributorContract to process the order\r\n        emit OrderPlaced(orderId, productId, quantity);    // Emit an event indicating the order was placed\r\n    }\r\n\r\n    // Function to confirm delivery\r\n    function confirmDelivery(uint orderId) external{\r\n        DeliveryContract(deliveryContract).confirmDelivery(orderId);    // Call the confirmDelivery function in the DeliveryContract to confirm the delivery\r\n        emit DeliveryConfirmed(orderId);  // Emit an event indicating the delivery was confirmed.\r\n    }\r\n}",
  "sourcePath": "C:\\Users\\alexk\\projects\\erpproject\\supplychain\\smart_contracts\\contracts\\RetailstoreContract.sol",
  "compiler": {
    "name": "solc",
    "version": "0.8.17+commit.8df45f5f.Emscripten.clang"
  },
  "schemaVersion": "3.4.16",
  "updatedAt": "2024-09-16T14:21:04.339Z",
  "networkType": "ethereum",
  "devdoc": {
    "kind": "dev",
    "methods": {},
    "version": 1
  },
  "userdoc": {
    "kind": "user",
    "methods": {},
    "version": 1
  }
}